:100000000A128A11E22FFF1B0D2883137F18831712
:100010000008840A0319FF0A080000308A00040857
:10002000840A820700344C34653463347434753484
:1000300072346134203455344134523454340034F1
:08004000203400347334003455
:10063C0008340034023403340434053406340734EB
:10064C00F00083160313981C2C2B2D2B272B7008D2
:10065C008312031399000800FD00F7017D080A12AC
:10066C008A11E7240A128A11F701F70A7D080A1287
:10067C008A11E7240A128A1108007E088A007F0872
:10068C0082000A128A1143230A128A118000840AFA
:10069C0004087D0603190034FF0A0319FE0A472BD0
:1006AC0083160313181106309900181283120313C2
:1006BC00981783160313871707178312031318163B
:1006CC00831603139816080083120313B400B11F8A
:1006DC00702B712B812B2D30FD00340884007D088C
:1006EC00831380000130FD007D08B407B009B10907
:1006FC00B00A0319B10A3108F9003008F8003308C0
:10070C00FB003208FA0034080A128A110D260A126C
:10071C008A110800831603138801831203138801BE
:10072C008030831603138700831203138701003074
:10073C00F3000030F2002230F100E130F0000A1238
:10074C008A1156230A128A1138300A128A11262469
:10075C000A128A1138300A128A1132230A128A11AB
:10076C00080083120313B3002C18BD2BBE2BC42B13
:10077C0080302D04B0000030B100C92BC0302D04E6
:10078C00B0000030B1003008AE002E08B2003208C4
:10079C00AE0004300310AE0CFF3E031DD02B2E0810
:1007AC00AF002F08F70033080A128A11E7240A1247
:1007BC008A11831203133208AE002E08F700330897
:1007CC000A128A11E7240A128A11080070087104AF
:1007DC000319F12BF22B212CF501F50A002C013019
:1007EC000310F00DF10DFF3E031DF62B0130F4004C
:1007FC007408F507F11F032C042CF52B71087302F8
:10080C00031D0A2C70087202031C0D2C0E2C142CC8
:10081C007008F2027108031CF303F3020130031099
:10082C00F10CF00CFF3E031D152C0130F502031DDD
:10083C00202C212C042C7308F1007208F000080005
:10084C0083120313AC000230FD007D08F7002C0866
:10085C000A128A11E7240A128A11F7018312031370
:10086C002C080A128A11E7240A128A110C30FD0096
:10087C007D08F700831203132C080A128A11E7244F
:10088C000A128A110230FD007D08F700831203134F
:10089C002C080A128A11E7240A128A110830FD006A
:1008AC007D08F700831203132C080A128A11E7241F
:1008BC000A128A110800F601F701862C76087107D6
:1008CC00F4007208F3000318F30AF61F6E2CF303FE
:1008DC007308F500750883120313FF007408840075
:1008EC000A128A1103200A128A110A128A1126236B
:1008FC000A128A110130F6070318F70A0030F707BD
:10090C0076087107F4007208F3000318F30AF61F57
:10091C00902CF3037308F500750883120313FF0082
:10092C00740884000A128A1103200A128A11003AF0
:10093C00031DA12CA22C642C0800F501F6017008F3
:10094C0071040319AA2CAB2CE22CF701F70AB92C71
:10095C0001300310F00DF10DFF3E031DAF2C0130E3
:10096C00F4007408F707F11FBC2CBD2CAE2C013021
:10097C000310F50DF60DFF3E031DBE2C710873021E
:10098C00031DCA2C70087202031CCD2CCE2CD52C46
:10099C007008F2027108031CF303F30275140130A2
:1009AC000310F10CF00CFF3E031DD62C0130F702A6
:1009BC00031DE12CE22CBD2C7608F1007508F0002B
:1009CC000800FC007708F8007808F0007C080A1290
:1009DC008A117F260A128A11C730F800F80BF42C02
:1009EC00F72C0130F8007C08033E84008313000AC6
:1009FC00012D0310F80DFF3E031DFF2C7808F900A4
:100A0C007C0884000008FA00840A0008FB007A08BD
:100A1C00840083177B1C831379088004C730F8008B
:100A2C00F80B162D192D0130F8007C08033E8400BC
:100A3C008313000A232D0310F80DFF3E031D212DF7
:100A4C007808FF3AF9007C0884000008FA00840A50
:100A5C000008FB007A08840083177B1C8313790839
:100A6C0080050800FD00702D2D08FF002C08840067
:100A7C000A128A1103200A128A11AE0004300310E4
:100A8C00AE0CFF3E031D452D2E08AF002F08F700BE
:100A9C007D080A128A119F250A128A1183120313E8
:100AAC002D08FF002C0884000A128A1103200A1258
:100ABC008A11AE002E08F7007D080A128A119F25B4
:100ACC000A128A11013083120313AC070318AD0A02
:100ADC000030AD07831203132D08FF002C0884008F
:100AEC000A128A1103200A128A11003A031D7F2D63
:100AFC00802D3A2D0130AE007D08023E8400831318
:100B0C00000A8A2D0310AE0DFF3E031D882D2E0802
:100B1C00FF3AAF007D0884000008B000840A00088A
:100B2C00B100300884008317311C83132F08800513
:100B3C000800FC007708F8007808F0007C080A121E
:100B4C008A117F260A128A110130F8007C08023EB5
:100B5C0084008313000AB42D0310F80DFF3E031D0F
:100B6C00B22D7808F9007C0884000008FA00840A89
:100B7C000008FB007A08840083177B1C8313790818
:100B8C008004C730F800F80BC92DCC2D0130F800CB
:100B9C007C08033E84008313000AD62D0310F80D45
:100BAC00FF3E031DD42D7808F9007C088400000852
:100BBC00FA00840A0008FB007A08840083177B1C67
:100BCC00831379088004C730F800F80BEB2DEE2D59
:100BDC000130F8007C08033E84008313000AF82DD2
:100BEC000310F80DFF3E031DF62D7808FF3AF900AF
:100BFC007C0884000008FA00840A0008FB007A08CC
:100C0C00840083177B1C83137908800508008312EA
:100C1C000313AF007908AD007808AC007B08F10035
:100C2C007A08F0002D08F3002C08F2000A128A1141
:100C3C00A3240A128A11710883120313AD007008E1
:100C4C00AC000130FC007C08AF072C082D04031D00
:100C5C00302E312E142E2F08840083138001013086
:100C6C00AF027B08F1007A08F0007908F3007808ED
:100C7C00F2000A128A11EC230A128A117008FC0085
:100C8C007C0883120313AE007B08F1007A08F00095
:100C9C007908F3007808F2000A128A11A3240A12C8
:100CAC008A117108F9007008F8000A3083120313D6
:100CBC002E02031C622E632E672E0730FC007C086C
:100CCC00AE073030FC007C08AE072E08FC002F0865
:100CDC0084007C08831380000130AF02780879040B
:100CEC00031D792E7A2E372E0130FC007C08AF07BD
:100CFC000800F6007608840083130008F100840ACB
:100D0C000008F200710884008317721C83138001A1
:100D1C007008F10003300310F10CFF3E031D912EFF
:100D2C0071080139F2007608073E84008313000A2B
:100D3C00A12E0310F20DFF3E031D9F2E7208F3002F
:100D4C00760884000008F400840A0008F500740892
:100D5C0084008317751C8313730880047008F100DA
:100D6C0002300310F10CFF3E031DB72E7108013940
:100D7C00F2007608063E84008313000AC72E031087
:100D8C00F20DFF3E031DC52E7208F3007608840099
:100D9C000008F400840A0008F50074088400831726
:100DAC00751C8313730880047008F1000310710C18
:100DBC000139F2007608053E84008313000AE82E00
:100DCC000310F20DFF3E031DE62E7208F3007608A9
:100DDC0084000008F400840A0008F50074088400FC
:100DEC008317751C83137308800470080139F10094
:100DFC007608043E84008313000A062F0310F10DBD
:100E0C00FF3E031D042F7108F200760884000008D1
:100E1C00F300840A0008F400730884008317741C20
:100E2C0083137208800408000A128A1190230A1294
:100E3C008A112230F1000030F2000A128A1161246A
:100E4C000A128A110E30F1008030F2000A128A1157
:100E5C0061240A128A11013083120313A0070318AC
:100E6C00A10A0030A1072108B1002008B0000A3007
:100E7C00B2000030B30022300A128A116A230A121F
:100E8C008A11831203132108803AFF0080307F02FD
:100E9C00031D522F3C302002031C552F562F5A2F66
:100EAC0083120313A001A101831203132108803ABA
:100EBC00FF0080307F02031D652F0A3020020318CB
:100ECC00682F692F832F83120313AC01AC0A0730F0
:100EDC00B5003508AD0038300A128A11B7230A1252
:100EEC008A110E3083120313AC008030AD00383001
:100EFC000A128A1138250A128A1183120313AC01C3
:100F0C000230B5003508AD0038300A128A11B7230B
:100F1C000A128A11013083120313AC008030AD0029
:100F2C0038300A128A1138250A128A1183120313D7
:100F3C00AC01AC0A0630B5003508AD0038300A12E9
:100F4C008A11B7230A128A11223083120313AC00C0
:100F5C000030AD0038300A128A1138250A128A1175
:100F6C0083120313AC01AC0A0830B5003508AD0090
:100F7C0038300A128A11B7230A128A1110308312E0
:100F8C000313AC008030AD0038300A128A113825BA
:100F9C000A128A11033083120313B7008A30B60089
:100FAC005530B500B50BD82FB60BD82FB70BD82FA3
:100FBC001F2F0A128A11002883134030FD000330C2
:100FCC00FE001E30FF00383084000A128A114723BD
:100FDC000A128A11A001A101A201A301A401A50179
:100FEC00A601A701A801A901AA01AB0183010A125C
:040FFC008A111A2F0D
:02400E00FA3F77
:00000001FF
