:100000000A128A11E62FFF1B0D2883137F1883170E
:100010000008840A0319FF0A080000308A00040857
:10002000840A820700344C34653463347434753484
:1000300072346134203455344134523454340034F1
:08004000203400347334003455
:100578000030831203138C1A01300800831203130E
:100588008C1EC72AC82AC22A1A08080064008001DB
:10059800840A0406031900340406CB2A08340034FC
:1005A800023403340434053406340734F000831667
:1005B8000313981CE02AE12ADB2A7008831203132C
:1005C80099000800FD00F7017D080A128A11C42469
:1005D8000A128A11F701F70A7D080A128A11C4243F
:1005E8000A128A1108007E088A007F0882000A120F
:1005F8008A11F7220A128A118000840A04087D06EB
:1006080003190034FF0A0319FE0AFB2A8316031391
:1006180018110630990018128312031398178316BD
:100628000313871707178312031318168316031368
:10063800981608000A128A11BC220A128A11003A76
:100648000319272B282B352B0A128A11C2220A12CA
:100658008A11F000F101700883120313A6007108D3
:10066800A700080083120313BA00B71F3C2B3D2BC9
:100678004D2B2D30FD003A0884007D08831380003F
:100688000130FD007D08BA07B609B709B60A031993
:10069800B70A3708F9003608F8003908FB003808A7
:1006A800FA003A080A128A11EA250A128A11080081
:1006B80083120313B9003218622B632B692B803025
:1006C8003304B6000030B7006E2BC0303304B600D8
:1006D8000030B7003608B4003408B8003808B40051
:1006E80004300310B40CFF3E031D752B3408B5000D
:1006F8003508F70039080A128A11C4240A128A1127
:10070800831203133808B4003408F70039080A12B2
:100718008A11C4240A128A110800063083160313AA
:100728008500831203138501831603138601831240
:1007380003138601831603138801831203138801A8
:10074800831603131F08F03907389F00803087008D
:100758008312031387010030F3000030F2002230C7
:10076800F100E130F0000A128A110A230A128A11F4
:100778003E300A128A1103240A128A113E300A12E4
:100788008A11E6220A128A110800700871040319F6
:10079800CE2BCF2BFE2BF501F50ADD2B01300310F4
:1007A800F00DF10DFF3E031DD32B0130F40074084A
:1007B800F507F11FE02BE12BD22B71087302031D03
:1007C800E72B70087202031CEA2BEB2BF12B700845
:1007D800F2027108031CF303F30201300310F10C59
:1007E800F00CFF3E031DF22B0130F502031DFD2B1B
:1007F800FE2BE12B7308F1007208F0000800831249
:100808000313B2000230FD007D08F70032080A1217
:100818008A11C4240A128A11F701831203133208B9
:100828000A128A11C4240A128A110C30FD007D08AC
:10083800F7008312031332080A128A11C4240A1219
:100848008A110230FD007D08F70083120313320875
:100858000A128A11C4240A128A110830FD007D0880
:10086800F7008312031332080A128A11C4240A12E9
:100878008A110800F601F701632C76087107F40065
:100888007208F3000318F30AF61F4B2CF3037308DE
:10089800F500750883120313FF00740884000A1218
:1008A8008A1103200A128A110A128A11DA220A12FC
:1008B8008A110130F6070318F70A0030F70776089F
:1008C8007107F4007208F3000318F30AF61F6D2C81
:1008D800F3037308F500750883120313FF00740807
:1008E80084000A128A1103200A128A11003A031D91
:1008F8007E2C7F2C412C0800F501F601700871044C
:100908000319872C882CBF2CF701F70A962C013085
:100918000310F00DF10DFF3E031D8C2C0130F40087
:100928007408F707F11F992C9A2C8B2C01300310AF
:10093800F50DF60DFF3E031D9B2C71087302031D78
:10094800A72C70087202031CAA2CAB2CB22C7008BE
:10095800F2027108031CF303F3027514013003104B
:10096800F10CF00CFF3E031DB32C0130F702031D00
:10097800BE2CBF2C9A2C7608F1007508F0000800F0
:10098800FC007708F8007808F0007C080A128A1141
:100998005C260A128A11C730F800F80BD12CD42C27
:1009A8000130F8007C08033E84008313000ADE2C23
:1009B8000310F80DFF3E031DDC2C7808F9007C08B5
:1009C80084000008FA00840A0008FB007A08840002
:1009D80083177B1C831379088004C730F800F80B51
:1009E800F32CF62C0130F8007C08033E84008313B6
:1009F800000A002D0310F80DFF3E031DFE2C780899
:100A0800FF3AF9007C0884000008FA00840A00080C
:100A1800FB007A08840083177B1C83137908800500
:100A28000800FD004D2D3308FF00320884000A122B
:100A38008A1103200A128A11B40004300310B40C7E
:100A4800FF3E031D222D3408B5003508F7007D0848
:100A58000A128A117C250A128A1183120313330899
:100A6800FF00320884000A128A1103200A128A1130
:100A7800B4003408F7007D080A128A117C250A128E
:100A88008A11013083120313B2070318B30A003026
:100A9800B307831203133308FF00320884000A12D5
:100AA8008A1103200A128A11003A031D5C2D5D2D5C
:100AB800172D0130B4007D08023E84008313000A1C
:100AC800672D0310B40DFF3E031D652D3408FF3A52
:100AD800B5007D0884000008B600840A0008B70045
:100AE800360884008317371C8313350880050800EF
:100AF800FC007708F8007808F0007C080A128A11D0
:100B08005C260A128A110130F8007C08023E840033
:100B18008313000A912D0310F80DFF3E031D8F2D3E
:100B28007808F9007C0884000008FA00840A0008A4
:100B3800FB007A08840083177B1C831379088004E0
:100B4800C730F800F80BA62DA92D0130F8007C0855
:100B5800033E84008313000AB32D0310F80DFF3EF3
:100B6800031DB12D7808F9007C0884000008FA00FC
:100B7800840A0008FB007A08840083177B1C83130F
:100B880079088004C730F800F80BC82DCB2D013048
:100B9800F8007C08033E84008313000AD52D031057
:100BA800F80DFF3E031DD32D7808FF3AF9007C08A5
:100BB80084000008FA00840A0008FB007A08840010
:100BC80083177B1C8313790880050800831203139D
:100BD800B5007908B3007808B2007B08F1007A08FC
:100BE800F0003308F3003208F2000A128A11802458
:100BF8000A128A11710883120313B3007008B20035
:100C08000130FC007C08B50732083304031D0D2EA3
:100C18000E2EF12D35088400831380010130B502B2
:100C28007B08F1007A08F0007908F3007808F200F0
:100C38000A128A11C9230A128A117008FC007C085A
:100C480083120313B4007B08F1007A08F0007908D6
:100C5800F3007808F2000A128A1180240A128A1115
:100C68007108F9007008F8000A308312031334027F
:100C7800031C3F2E402E442E0730FC007C08B4078E
:100C88003030FC007C08B4073408FC0035088400C8
:100C98007C08831380000130B50278087904031DAD
:100CA800562E572E142E0130FC007C08B50708007C
:100CB800F6007608840083130008F100840A00080F
:100CC800F200710884008317721C83138001700876
:100CD800F10003300310F10CFF3E031D6E2E710866
:100CE8000139F2007608073E84008313000A7E2E3D
:100CF8000310F20DFF3E031D7C2E7208F3007608E8
:100D080084000008F400840A0008F50074088400D0
:100D18008317751C8313730880047008F100023070
:100D28000310F10CFF3E031D942E71080139F200E7
:100D38007608063E84008313000AA42E0310F20DE1
:100D4800FF3E031DA22E7208F300760884000008F7
:100D5800F400840A0008F500740884008317751CE1
:100D68008313730880047008F1000310710C0139B3
:100D7800F2007608053E84008313000AC52E03108E
:100D8800F20DFF3E031DC32E7208F300760884009F
:100D98000008F400840A0008F5007408840083172A
:100DA800751C83137308800470080139F1007608F4
:100DB800043E84008313000AE32E0310F10DFF3E66
:100DC800031DE12E7108F200760884000008F30084
:100DD800840A0008F400730884008317741C8313C2
:100DE8007208800408000A128A1191230A128A11D3
:100DF8002830F1000030F2000A128A113E240A124B
:100E08008A110E30F1008030F2000A128A113E2455
:100E18000A128A11013083120313A2070318A30AC6
:100E28000030A3072308B7002208B6000A30B8002C
:100E38000030B90028300A128A1136230A128A11A2
:100E4800831203132308803AFF0080307F02031DBA
:100E58002F2F3C302202031C322F332F372F8312BF
:100E68000313A201A301831203132308803AFF008E
:100E780080307F02031D422F0A3022020318452FBB
:100E8800462F602F83120313B201B20A0730BB004A
:100E98003B08B3003E300A128A115C230A128A11F9
:100EA8000E3083120313B2008030B3003E300A12B2
:100EB8008A1115250A128A1183120313B20102300E
:100EC800BB003B08B3003E300A128A115C230A12A9
:100ED8008A11013083120313B2008030B3003E3010
:100EE8000A128A1115250A128A1183120313B201F4
:100EF800B20A0630BB003B08B3003E300A128A1122
:100F08005C230A128A11283083120313B2000030BE
:100F1800B3003E300A128A1115250A128A1183126B
:100F28000313B201B20A0830BB003B08B3003E30DD
:100F38000A128A115C230A128A11103083120313D1
:100F4800B2008030B3003E300A128A1115250A1209
:100F58008A11033083120313BD008A30BC00553058
:100F6800BB00BB0BB52FBC0BB52FBD0BB52F0A12A1
:100F78008A111E230A128A1161308312031326066E
:100F88002704031DC82FC92FD12FA601A70101309F
:100F9800A0070318A10A0030A10720032104031D9C
:100FA800D62FD72FD82F8614023020062104031DF0
:100FB800DE2FDF2FFC2E8610A001A101FC2E0A12C5
:100FC8008A11002883134630FD000230FE00D2301B
:100FD800FF003E3084000A128A11FB220A128A118D
:100FE8002030840032300A128A11CA220A128A1169
:080FF80083010A128A11F72E91
:02400E00FA3F77
:00000001FF
