:100000000A128A11E62FFF1B0D2883137F1883170E
:100010000008840A0319FF0A080000308A00040857
:10002000840A820700344C34653463347434753484
:1000300072346134203455344134523454340034F1
:08004000203400347334003455
:10048A000030831203138C1A0130080083120313FD
:10049A008C1E502A512A4B2A1A080800640080012F
:1004AA00840A0406031900340406542A0134003469
:1004BA00083400340234033404340534063407346F
:1004CA00F00083160313981C6B2A6C2A662A70089C
:1004DA008312031399000800FD00F7017D080A1230
:1004EA008A114F240A128A11F701F70A7D080A12A3
:1004FA008A114F240A128A1108007E088A007F088E
:10050A0082000A128A1182220A128A118000840A3F
:10051A0004087D0603190034FF0A0319FE0A862A15
:10052A008316031318110630990018128312031345
:10053A0098178316031387170717831203131816BE
:10054A0083160313981608000A128A1145220A1202
:10055A008A11003A0319B22AB32AC02A0A128A1146
:10056A004B220A128A11F000F10170088312031358
:10057A00A4007108A500080083120313B800B51F70
:10058A00C72AC82AD82A2D30FD00380884007D08D9
:10059A00831380000130FD007D08B807B409B5094E
:1005AA00B40A0319B50A3508F9003408F8003708FF
:1005BA00FB003608FA0038080A128A1175250A1251
:1005CA008A11080083120313B7003018ED2AEE2AA5
:1005DA00F42A80303104B4000030B500F92AC03062
:1005EA003104B4000030B5003408B2003208B60055
:1005FA003608B20004300310B20CFF3E031D002B74
:10060A003208B3003308F70037080A128A114F2458
:10061A000A128A11831203133608B2003208F7004D
:10062A0037080A128A114F240A128A110800063062
:10063A00831603138500831203138501831603139C
:10064A00860183120313860183160313880183121A
:10065A0003138801831603131F08F03907389F0014
:10066A00803087008312031387010030F3000030C3
:10067A00F2002230F100E130F0000A128A119522CC
:10068A000A128A113E300A128A118E230A128A111C
:10069A003E300A128A1171220A128A110800700861
:1006AA0071040319592B5A2B892BF501F50A682B6A
:1006BA0001300310F00DF10DFF3E031D5E2B0130DA
:1006CA00F4007408F507F11F6B2B6C2B5D2B710876
:1006DA007302031D722B70087202031C752B762B92
:1006EA007C2B7008F2027108031CF303F302013039
:1006FA000310F10CF00CFF3E031D7D2B0130F502B7
:10070A00031D882B892B6C2B7308F1007208F000EB
:10071A00080083120313B0000230FD007D08F700C1
:10072A0030080A128A114F240A128A11F701831219
:10073A00031330080A128A114F240A128A110C3044
:10074A00FD007D08F7008312031330080A128A118C
:10075A004F240A128A110230FD007D08F700831225
:10076A00031330080A128A114F240A128A11083018
:10077A00FD007D08F7008312031330080A128A115C
:10078A004F240A128A110800F601F701EE2B7608A7
:10079A007107F4007208F3000318F30AF61FD62B48
:1007AA00F3037308F500750883120313FF00740836
:1007BA0084000A128A1103200A128A110A128A1163
:1007CA0065220A128A110130F6070318F70A003067
:1007DA00F70776087107F4007208F3000318F30AA2
:1007EA00F61FF82BF3037308F50075088312031339
:1007FA00FF00740884000A128A1103200A128A115F
:10080A00003A031D092C0A2CCC2B0800F501F6012D
:10081A00700871040319122C132C4A2CF701F70AD9
:10082A00212C01300310F00DF10DFF3E031D172C92
:10083A000130F4007408F707F11F242C252C162C1C
:10084A0001300310F50DF60DFF3E031D262C71082D
:10085A007302031D322C70087202031C352C362CCD
:10086A003D2C7008F2027108031CF303F30275149D
:10087A0001300310F10CF00CFF3E031D3E2C013039
:10088A00F702031D492C4A2C252C7608F10075081D
:10089A00F0000800FC007708F8007808F0007C08EF
:1008AA000A128A11E7250A128A11C730F800F80BD2
:1008BA005C2C5F2C0130F8007C08033E8400831313
:1008CA00000A692C0310F80DFF3E031D672C7808F7
:1008DA00F9007C0884000008FA00840A0008FB007A
:1008EA007A08840083177B1C831379088004C73035
:1008FA00F800F80B7E2C812C0130F8007C08033EAE
:10090A0084008313000A8B2C0310F80DFF3E031D8D
:10091A00892C7808FF3AF9007C0884000008FA005C
:10092A00840A0008FB007A08840083177B1C83135F
:10093A00790880050800FD00D82C3108FF0030082E
:10094A0084000A128A1103200A128A11B2000430A2
:10095A000310B20CFF3E031DAD2C3208B30033085E
:10096A00F7007D080A128A1107250A128A118312D2
:10097A0003133108FF00300884000A128A11032089
:10098A000A128A11B2003208F7007D080A128A1187
:10099A0007250A128A11013083120313B0070318BC
:1009AA00B10A0030B107831203133108FF0030087F
:1009BA0084000A128A1103200A128A11003A031DBE
:1009CA00E72CE82CA22C0130B2007D08023E8400FC
:1009DA008313000AF22C0310B20DFF3E031DF02C04
:1009EA003208FF3AB3007D0884000008B400840A84
:1009FA000008B500340884008317351C83133308B4
:100A0A0080050800FC007708F8007808F0007C08E8
:100A1A000A128A11E7250A128A110130F8007C08A5
:100A2A00023E84008313000A1C2D0310F80DFF3EBA
:100A3A00031D1A2D7808F9007C0884000008FA00C2
:100A4A00840A0008FB007A08840083177B1C83133E
:100A5A0079088004C730F800F80B312D342D0130A5
:100A6A00F8007C08033E84008313000A3E2D03101D
:100A7A00F80DFF3E031D3C2D7808F9007C08840020
:100A8A000008FA00840A0008FB007A088400831729
:100A9A007B1C831379088004C730F800F80B532DA8
:100AAA00562D0130F8007C08033E84008313000AA7
:100ABA00602D0310F80DFF3E031D5E2D7808FF3AE6
:100ACA00F9007C0884000008FA00840A0008FB0088
:100ADA007A08840083177B1C831379088005080031
:100AEA0083120313B3007908B1007808B0007B08B9
:100AFA00F1007A08F0003108F3003008F2000A1217
:100B0A008A110B240A128A11710883120313B10085
:100B1A007008B0000130FC007C08B30730083104CB
:100B2A00031D982D992D7C2D330884008313800191
:100B3A000130B3027B08F1007A08F0007908F3006B
:100B4A007808F2000A128A1154230A128A117008CC
:100B5A00FC007C0883120313B2007B08F1007A08B8
:100B6A00F0007908F3007808F2000A128A110B24BF
:100B7A000A128A117108F9007008F8000A30831203
:100B8A0003133202031CCA2DCB2DCF2D0730FC00D4
:100B9A007C08B2073030FC007C08B2073208FC003F
:100BAA00330884007C08831380000130B30278087C
:100BBA007904031DE12DE22D9F2D0130FC007C08F4
:100BCA00B3070800F6007608840083130008F100D2
:100BDA00840A0008F200710884008317721C8313C8
:100BEA0080017008F10003300310F10CFF3E031D71
:100BFA00F92D71080139F2007608073E8400831343
:100C0A00000A092E0310F20DFF3E031D072E72087B
:100C1A00F300760884000008F400840A0008F5004E
:100C2A00740884008317751C831373088004700882
:100C3A00F10002300310F10CFF3E031D1F2E710854
:100C4A000139F2007608063E84008313000A2F2E2B
:100C5A000310F20DFF3E031D2D2E7208F3007608D5
:100C6A0084000008F400840A0008F500740884006F
:100C7A008317751C8313730880047008F10003102E
:100C8A00710C0139F2007608053E84008313000ACC
:100C9A00502E0310F20DFF3E031D4E2E7208F30074
:100CAA00760884000008F400840A0008F500740835
:100CBA0084008317751C8313730880047008013934
:100CCA00F1007608043E84008313000A6E2E031096
:100CDA00F10DFF3E031D6C2E7108F20076088400A8
:100CEA000008F300840A0008F400730884008317DC
:100CFA00741C83137208800408000A128A111C23C8
:100D0A000A128A112630F1000030F2000A128A1102
:100D1A00C9230A128A110E30F1008030F2000A1239
:100D2A008A11C9230A128A11013083120313A207F6
:100D3A000318A30A0030A3072308B5002208B40049
:100D4A000A30B6000030B70026300A128A11C122D2
:100D5A000A128A11831203132308803AFF00803093
:100D6A007F02031DBA2E3C302202031CBD2EBE2E6A
:100D7A00C22E83120313A201A301831203132308B1
:100D8A00803AFF0080307F02031DCD2E0A302202F6
:100D9A000318D02ED12EEB2E83120313B001B00A02
:100DAA000730B9003908B1003E300A128A11E72229
:100DBA000A128A110E3083120313B0008030B10078
:100DCA003E300A128A11A0240A128A1183120313CE
:100DDA00B0010230B9003908B1003E300A128A1156
:100DEA00E7220A128A11013083120313B0008030FD
:100DFA00B1003E300A128A11A0240A128A11831203
:100E0A000313B001B00A0630B9003908B1003E3008
:100E1A000A128A11E7220A128A1126308312031350
:100E2A00B0000030B1003E300A128A11A0240A1222
:100E3A008A1183120313B001B00A0830B9003908C5
:100E4A00B1003E300A128A11E7220A128A111030C2
:100E5A0083120313B0008030B1003E300A128A11A7
:100E6A00A0240A128A11033083120313BB008A30AA
:100E7A00BA005530B900B90B402FBA0B402FBB0B43
:100E8A00402F0A128A11A9220A128A11613083128A
:100E9A00031324062504031D532F542F552F06141C
:100EAA00623024062504031D5B2F5C2F5D2F8614F8
:100EBA00633024062504031D632F642F652F06154E
:100ECA00643024062504031D6B2F6C2F6D2F8615A5
:100EDA00653024062504031D732F742F752F0616FB
:100EEA00663024062504031D7B2F7C2F7D2F861652
:100EFA00673024062504031D832F842F852F0617A8
:100F0A00683024062504031D8B2F8C2F8D2F8617FE
:100F1A00693024062504031D932F942F952F071457
:100F2A006A3024062504031D9B2F9C2F9D2F8714AE
:100F3A006C3024062504031DA32FA42FAC2F0130E7
:100F4A00A0070318A10A0030A107A401A5012003E4
:100F5A002104031DB12FB22FC42FFF3086000714BE
:100F6A008714023083120313BB004530BA00A9303C
:100F7A00B900B90BBE2FBA0BBE2FBB0BBE2F023066
:100F8A008312031320062104031DCC2FCD2F872E95
:100F9A00860107108710023083120313BB00453005
:100FAA00BA00A930B900B90BD82FBA0BD82FBB0B8E
:100FBA00D82F83120313A001A101872E0A128A11C6
:100FCA00002883134630FD000230FE005B30FF002C
:100FDA003C3084000A128A1186220A128A112030B1
:100FEA00840030300A128A1153220A128A118301AC
:060FFA000A128A11822E8A
:02400E00FA3F77
:00000001FF
